{
  "address": "0x4989198E999E66B829Ab320FeC08cf29C258Fd0B",
  "abi": [
    {
      "inputs": [
        {
          "internalType": "address",
          "name": "_target",
          "type": "address"
        },
        {
          "internalType": "address",
          "name": "_principalToken",
          "type": "address"
        },
        {
          "internalType": "address",
          "name": "_sharesToken",
          "type": "address"
        },
        {
          "internalType": "uint256",
          "name": "_amount",
          "type": "uint256"
        },
        {
          "internalType": "address",
          "name": "_sharesRecipient",
          "type": "address"
        },
        {
          "internalType": "uint256",
          "name": "_minSharesAmountOut",
          "type": "uint256"
        }
      ],
      "name": "addPrincipalToCommitmentGroup",
      "outputs": [],
      "stateMutability": "nonpayable",
      "type": "function"
    },
    {
      "inputs": [
        {
          "internalType": "address",
          "name": "_target",
          "type": "address"
        },
        {
          "internalType": "address",
          "name": "_principalToken",
          "type": "address"
        },
        {
          "internalType": "address",
          "name": "_poolSharesToken",
          "type": "address"
        },
        {
          "internalType": "uint256",
          "name": "_amountPoolSharesTokens",
          "type": "uint256"
        },
        {
          "internalType": "address",
          "name": "_recipient",
          "type": "address"
        },
        {
          "internalType": "uint256",
          "name": "_minAmountOut",
          "type": "uint256"
        }
      ],
      "name": "burnSharesToWithdrawEarnings",
      "outputs": [],
      "stateMutability": "nonpayable",
      "type": "function"
    },
    {
      "inputs": [
        {
          "internalType": "address",
          "name": "_target",
          "type": "address"
        },
        {
          "internalType": "address",
          "name": "_principalToken",
          "type": "address"
        },
        {
          "internalType": "uint256",
          "name": "_bidId",
          "type": "uint256"
        },
        {
          "internalType": "int256",
          "name": "_tokenAmountDifference",
          "type": "int256"
        },
        {
          "internalType": "int256",
          "name": "loanAmount",
          "type": "int256"
        }
      ],
      "name": "liquidateDefaultedLoanWithIncentive",
      "outputs": [],
      "stateMutability": "nonpayable",
      "type": "function"
    },
    {
      "inputs": [
        {
          "internalType": "address",
          "name": "_target",
          "type": "address"
        },
        {
          "internalType": "uint256",
          "name": "_amountPoolSharesTokens",
          "type": "uint256"
        }
      ],
      "name": "prepareSharesForWithdraw",
      "outputs": [],
      "stateMutability": "nonpayable",
      "type": "function"
    }
  ],
  "transactionHash": "0x76fea624b700c425daa452642a4cce3a506082fbe252ea3170fc988d9ac30321",
  "args": [],
  "numDeployments": 1,
  "solcInputHash": "3a2bad102ed9c7ec5c97486f8ef6ff53",
  "bytecode": "0x608060405234801561001057600080fd5b5061087c806100206000396000f3fe608060405234801561001057600080fd5b506004361061004c5760003560e01c806345e95f9214610051578063800fcb2e14610066578063c0774c6014610079578063fbb478811461008c575b600080fd5b61006461005f3660046106d0565b61009f565b005b61006461007436600461071d565b610243565b61006461008736600461071d565b610468565b61006461009a366004610783565b610635565b6001600160a01b0384166323b872dd33306100ba85876107c3565b6040516001600160e01b031960e086901b1681526001600160a01b0393841660048201529290911660248301526044820152606401602060405180830381600087803b15801561010957600080fd5b505af115801561011d573d6000803e3d6000fd5b505050506040513d601f19601f820116820180604052508101906101419190610804565b506001600160a01b03841663095ea7b38661015c84866107c3565b6040516001600160e01b031960e085901b1681526001600160a01b0390921660048301526024820152604401602060405180830381600087803b1580156101a257600080fd5b505af11580156101b6573d6000803e3d6000fd5b505050506040513d601f19601f820116820180604052508101906101da9190610804565b506040516376f28daf60e01b815260048101849052602481018390526001600160a01b038616906376f28daf90604401600060405180830381600087803b15801561022457600080fd5b505af1158015610238573d6000803e3d6000fd5b505050505050505050565b6040516323b872dd60e01b8152336004820152306024820152604481018490526001600160a01b038616906323b872dd90606401602060405180830381600087803b15801561029157600080fd5b505af11580156102a5573d6000803e3d6000fd5b505050506040513d601f19601f820116820180604052508101906102c99190610804565b5060405163095ea7b360e01b81526001600160a01b0387811660048301526024820185905286169063095ea7b390604401602060405180830381600087803b15801561031457600080fd5b505af1158015610328573d6000803e3d6000fd5b505050506040513d601f19601f8201168201806040525081019061034c9190610804565b5060405163e532b5e560e01b8152600481018490526001600160a01b038381166024830152604482018390526000919088169063e532b5e590606401602060405180830381600087803b1580156103a257600080fd5b505af11580156103b6573d6000803e3d6000fd5b505050506040513d601f19601f820116820180604052508101906103da919061082d565b60405163a9059cbb60e01b8152336004820152602481018290529091506001600160a01b0386169063a9059cbb906044015b602060405180830381600087803b15801561042657600080fd5b505af115801561043a573d6000803e3d6000fd5b505050506040513d601f19601f8201168201806040525081019061045e9190610804565b5050505050505050565b6040516323b872dd60e01b8152336004820152306024820152604481018490526001600160a01b038516906323b872dd90606401602060405180830381600087803b1580156104b657600080fd5b505af11580156104ca573d6000803e3d6000fd5b505050506040513d601f19601f820116820180604052508101906104ee9190610804565b5060405163095ea7b360e01b81526001600160a01b0387811660048301526024820185905285169063095ea7b390604401602060405180830381600087803b15801561053957600080fd5b505af115801561054d573d6000803e3d6000fd5b505050506040513d601f19601f820116820180604052508101906105719190610804565b50604051635bd3fc3560e11b8152600481018490526001600160a01b038381166024830152604482018390526000919088169063b7a7f86a90606401602060405180830381600087803b1580156105c757600080fd5b505af11580156105db573d6000803e3d6000fd5b505050506040513d601f19601f820116820180604052508101906105ff919061082d565b60405163a9059cbb60e01b8152336004820152602481018290529091506001600160a01b0387169063a9059cbb9060440161040c565b60405163e968a17360e01b8152600481018290526001600160a01b0383169063e968a17390602401602060405180830381600087803b15801561067757600080fd5b505af115801561068b573d6000803e3d6000fd5b505050506040513d601f19601f820116820180604052508101906106af9190610804565b505050565b80356001600160a01b03811681146106cb57600080fd5b919050565b600080600080600060a086880312156106e857600080fd5b6106f1866106b4565b94506106ff602087016106b4565b94979496505050506040830135926060810135926080909101359150565b60008060008060008060c0878903121561073657600080fd5b61073f876106b4565b955061074d602088016106b4565b945061075b604088016106b4565b935060608701359250610770608088016106b4565b915060a087013590509295509295509295565b6000806040838503121561079657600080fd5b61079f836106b4565b946020939093013593505050565b634e487b7160e01b600052601160045260246000fd5b600080821280156001600160ff1b03849003851316156107e5576107e56107ad565b600160ff1b83900384128116156107fe576107fe6107ad565b50500190565b60006020828403121561081657600080fd5b8151801515811461082657600080fd5b9392505050565b60006020828403121561083f57600080fd5b505191905056fea2646970667358221220b59bed922e9a86eddb308571f943b3bfae43e959f5a6b04a1823c86eb3d9eb7164736f6c63430008090033",
  "devdoc": {
    "kind": "dev",
    "methods": {
      "burnSharesToWithdrawEarnings(address,address,address,uint256,address,uint256)": {
        "params": {
          "_amountPoolSharesTokens": "The amount of share tokens to burn.",
          "_minAmountOut": "The minimum amount of principal tokens expected from the withdrawal.",
          "_recipient": "The address to receive the withdrawn principal tokens.",
          "_target": "The LenderCommitmentGroup contract address."
        }
      },
      "liquidateDefaultedLoanWithIncentive(address,address,uint256,int256,int256)": {
        "params": {
          "_bidId": "The ID of the defaulted loan bid to liquidate.",
          "_target": "The LenderCommitmentGroup contract address.",
          "_tokenAmountDifference": "The incentive amount required for liquidation."
        }
      },
      "prepareSharesForWithdraw(address,uint256)": {
        "params": {
          "_amountPoolSharesTokens": "The amount of share tokens to prepare for withdrawal.",
          "_target": "The LenderCommitmentGroup contract address."
        }
      }
    },
    "version": 1
  },
  "userdoc": {
    "kind": "user",
    "methods": {
      "burnSharesToWithdrawEarnings(address,address,address,uint256,address,uint256)": {
        "notice": "Allows the contract owner to burn shares and withdraw principal tokens from the specified LenderCommitmentGroup contract."
      },
      "liquidateDefaultedLoanWithIncentive(address,address,uint256,int256,int256)": {
        "notice": "Allows the contract owner to liquidate a defaulted loan with incentive in the specified LenderCommitmentGroup contract."
      },
      "prepareSharesForWithdraw(address,uint256)": {
        "notice": "Allows the contract owner to prepare shares for withdrawal in the specified LenderCommitmentGroup contract."
      }
    },
    "version": 1
  },
  "storageLayout": {
    "storage": [],
    "types": null
  }
}