{
  "address": "0x0410535A1C3c59Ce477644f21662b5A96b4bA085",
  "abi": [
    {
      "inputs": [
        {
          "internalType": "address",
          "name": "_admin",
          "type": "address"
        }
      ],
      "stateMutability": "nonpayable",
      "type": "constructor"
    },
    {
      "anonymous": false,
      "inputs": [
        {
          "indexed": false,
          "internalType": "bytes32[]",
          "name": "hashedAccounts",
          "type": "bytes32[]"
        }
      ],
      "name": "Allowed",
      "type": "event"
    },
    {
      "anonymous": false,
      "inputs": [
        {
          "indexed": false,
          "internalType": "bytes32[]",
          "name": "hashedAccounts",
          "type": "bytes32[]"
        }
      ],
      "name": "Blacklisted",
      "type": "event"
    },
    {
      "anonymous": false,
      "inputs": [
        {
          "indexed": false,
          "internalType": "address",
          "name": "consumer",
          "type": "address"
        }
      ],
      "name": "ConsumerAdded",
      "type": "event"
    },
    {
      "anonymous": false,
      "inputs": [
        {
          "indexed": false,
          "internalType": "address",
          "name": "consumer",
          "type": "address"
        }
      ],
      "name": "ConsumerRemoved",
      "type": "event"
    },
    {
      "anonymous": false,
      "inputs": [
        {
          "indexed": false,
          "internalType": "address",
          "name": "consumer",
          "type": "address"
        },
        {
          "indexed": false,
          "internalType": "address",
          "name": "account",
          "type": "address"
        }
      ],
      "name": "Registered",
      "type": "event"
    },
    {
      "anonymous": false,
      "inputs": [
        {
          "indexed": true,
          "internalType": "bytes32",
          "name": "role",
          "type": "bytes32"
        },
        {
          "indexed": true,
          "internalType": "bytes32",
          "name": "previousAdminRole",
          "type": "bytes32"
        },
        {
          "indexed": true,
          "internalType": "bytes32",
          "name": "newAdminRole",
          "type": "bytes32"
        }
      ],
      "name": "RoleAdminChanged",
      "type": "event"
    },
    {
      "anonymous": false,
      "inputs": [
        {
          "indexed": true,
          "internalType": "bytes32",
          "name": "role",
          "type": "bytes32"
        },
        {
          "indexed": true,
          "internalType": "address",
          "name": "account",
          "type": "address"
        },
        {
          "indexed": true,
          "internalType": "address",
          "name": "sender",
          "type": "address"
        }
      ],
      "name": "RoleGranted",
      "type": "event"
    },
    {
      "anonymous": false,
      "inputs": [
        {
          "indexed": true,
          "internalType": "bytes32",
          "name": "role",
          "type": "bytes32"
        },
        {
          "indexed": true,
          "internalType": "address",
          "name": "account",
          "type": "address"
        },
        {
          "indexed": true,
          "internalType": "address",
          "name": "sender",
          "type": "address"
        }
      ],
      "name": "RoleRevoked",
      "type": "event"
    },
    {
      "anonymous": false,
      "inputs": [
        {
          "indexed": false,
          "internalType": "uint256",
          "name": "threshold",
          "type": "uint256"
        }
      ],
      "name": "TimeThresholdChanged",
      "type": "event"
    },
    {
      "anonymous": false,
      "inputs": [
        {
          "indexed": false,
          "internalType": "bytes32[]",
          "name": "hashedAccounts",
          "type": "bytes32[]"
        }
      ],
      "name": "Whitelisted",
      "type": "event"
    },
    {
      "inputs": [],
      "name": "CONSUMER_ROLE",
      "outputs": [
        {
          "internalType": "bytes32",
          "name": "",
          "type": "bytes32"
        }
      ],
      "stateMutability": "view",
      "type": "function"
    },
    {
      "inputs": [],
      "name": "DEFAULT_ADMIN_ROLE",
      "outputs": [
        {
          "internalType": "bytes32",
          "name": "",
          "type": "bytes32"
        }
      ],
      "stateMutability": "view",
      "type": "function"
    },
    {
      "inputs": [],
      "name": "OPERATOR_ROLE",
      "outputs": [
        {
          "internalType": "bytes32",
          "name": "",
          "type": "bytes32"
        }
      ],
      "stateMutability": "view",
      "type": "function"
    },
    {
      "inputs": [
        {
          "internalType": "address[]",
          "name": "consumers",
          "type": "address[]"
        }
      ],
      "name": "addConsumers",
      "outputs": [],
      "stateMutability": "nonpayable",
      "type": "function"
    },
    {
      "inputs": [
        {
          "internalType": "address",
          "name": "operator",
          "type": "address"
        }
      ],
      "name": "addOperator",
      "outputs": [],
      "stateMutability": "nonpayable",
      "type": "function"
    },
    {
      "inputs": [
        {
          "internalType": "bytes32[]",
          "name": "hashedAccounts",
          "type": "bytes32[]"
        }
      ],
      "name": "allow",
      "outputs": [],
      "stateMutability": "nonpayable",
      "type": "function"
    },
    {
      "inputs": [
        {
          "internalType": "bytes32[]",
          "name": "hashedAccounts",
          "type": "bytes32[]"
        }
      ],
      "name": "blacklist",
      "outputs": [],
      "stateMutability": "nonpayable",
      "type": "function"
    },
    {
      "inputs": [
        {
          "internalType": "address",
          "name": "_newAdmin",
          "type": "address"
        }
      ],
      "name": "changeAdmin",
      "outputs": [],
      "stateMutability": "nonpayable",
      "type": "function"
    },
    {
      "inputs": [
        {
          "internalType": "uint256",
          "name": "_newThreshold",
          "type": "uint256"
        }
      ],
      "name": "changeTimeThreshold",
      "outputs": [],
      "stateMutability": "nonpayable",
      "type": "function"
    },
    {
      "inputs": [
        {
          "internalType": "bytes32",
          "name": "role",
          "type": "bytes32"
        }
      ],
      "name": "getRoleAdmin",
      "outputs": [
        {
          "internalType": "bytes32",
          "name": "",
          "type": "bytes32"
        }
      ],
      "stateMutability": "view",
      "type": "function"
    },
    {
      "inputs": [
        {
          "internalType": "bytes32",
          "name": "role",
          "type": "bytes32"
        },
        {
          "internalType": "address",
          "name": "account",
          "type": "address"
        }
      ],
      "name": "grantRole",
      "outputs": [],
      "stateMutability": "nonpayable",
      "type": "function"
    },
    {
      "inputs": [
        {
          "internalType": "bytes32",
          "name": "role",
          "type": "bytes32"
        },
        {
          "internalType": "address",
          "name": "account",
          "type": "address"
        }
      ],
      "name": "hasRole",
      "outputs": [
        {
          "internalType": "bool",
          "name": "",
          "type": "bool"
        }
      ],
      "stateMutability": "view",
      "type": "function"
    },
    {
      "inputs": [
        {
          "internalType": "address",
          "name": "_account",
          "type": "address"
        }
      ],
      "name": "isBlacklistedAccount",
      "outputs": [
        {
          "internalType": "bool",
          "name": "",
          "type": "bool"
        }
      ],
      "stateMutability": "view",
      "type": "function"
    },
    {
      "inputs": [
        {
          "internalType": "address",
          "name": "_origin",
          "type": "address"
        },
        {
          "internalType": "address",
          "name": "_sender",
          "type": "address"
        }
      ],
      "name": "isBlacklistedContext",
      "outputs": [
        {
          "internalType": "bool",
          "name": "",
          "type": "bool"
        }
      ],
      "stateMutability": "view",
      "type": "function"
    },
    {
      "inputs": [
        {
          "internalType": "address",
          "name": "account",
          "type": "address"
        }
      ],
      "name": "isTimeExceeded",
      "outputs": [
        {
          "internalType": "bool",
          "name": "",
          "type": "bool"
        }
      ],
      "stateMutability": "view",
      "type": "function"
    },
    {
      "inputs": [
        {
          "internalType": "address",
          "name": "_account",
          "type": "address"
        }
      ],
      "name": "register",
      "outputs": [],
      "stateMutability": "nonpayable",
      "type": "function"
    },
    {
      "inputs": [
        {
          "internalType": "address",
          "name": "_account",
          "type": "address"
        }
      ],
      "name": "registerStrict",
      "outputs": [],
      "stateMutability": "nonpayable",
      "type": "function"
    },
    {
      "inputs": [
        {
          "internalType": "bytes32",
          "name": "role",
          "type": "bytes32"
        },
        {
          "internalType": "address",
          "name": "account",
          "type": "address"
        }
      ],
      "name": "renounceRole",
      "outputs": [],
      "stateMutability": "nonpayable",
      "type": "function"
    },
    {
      "inputs": [
        {
          "internalType": "address[]",
          "name": "consumers",
          "type": "address[]"
        }
      ],
      "name": "revokeConsumers",
      "outputs": [],
      "stateMutability": "nonpayable",
      "type": "function"
    },
    {
      "inputs": [
        {
          "internalType": "address",
          "name": "operator",
          "type": "address"
        }
      ],
      "name": "revokeOperator",
      "outputs": [],
      "stateMutability": "nonpayable",
      "type": "function"
    },
    {
      "inputs": [
        {
          "internalType": "bytes32",
          "name": "role",
          "type": "bytes32"
        },
        {
          "internalType": "address",
          "name": "account",
          "type": "address"
        }
      ],
      "name": "revokeRole",
      "outputs": [],
      "stateMutability": "nonpayable",
      "type": "function"
    },
    {
      "inputs": [
        {
          "internalType": "bytes4",
          "name": "interfaceId",
          "type": "bytes4"
        }
      ],
      "name": "supportsInterface",
      "outputs": [
        {
          "internalType": "bool",
          "name": "",
          "type": "bool"
        }
      ],
      "stateMutability": "view",
      "type": "function"
    },
    {
      "inputs": [
        {
          "internalType": "bytes32[]",
          "name": "hashedAccounts",
          "type": "bytes32[]"
        }
      ],
      "name": "whitelist",
      "outputs": [],
      "stateMutability": "nonpayable",
      "type": "function"
    }
  ],
  "transactionHash": "0x49a019d63abb7ee27139e2b88b83d9a09f2a9eb76cba49025695a4f1ab51c35e",
  "args": [
    "0xD9B023522CeCe02251d877bb0EB4f06fDe6F98E6"
  ],
  "numDeployments": 1,
  "solcInputHash": "408d90cab52e8620e996ee631c3865ee",
  "bytecode": "0x6080604052607860015534801561001557600080fd5b506040516200180938038062001809833981016040819052610036916100e6565b610041600082610047565b50610116565b6000828152602081815260408083206001600160a01b038516845290915290205460ff166100e2576000828152602081815260408083206001600160a01b03851684529091529020805460ff191660011790556100a13390565b6001600160a01b0316816001600160a01b0316837f2f8788117e7eff1d82e926ec794901d17c78024a50270940304540a733656f0d60405160405180910390a45b5050565b6000602082840312156100f857600080fd5b81516001600160a01b038116811461010f57600080fd5b9392505050565b6116e380620001266000396000f3fe608060405234801561001057600080fd5b506004361061014d5760003560e01c80635fab577a116100c3578063a75413b41161007c578063a75413b4146102c1578063d547741f146102d4578063d7b8a621146102e7578063f5b541a6146102fa578063f6985cc31461030f578063fad8b32a1461032257600080fd5b80635fab577a1461025a5780636cffbed31461026d5780638f2839701461028057806391d14854146102935780639870d7fe146102a6578063a217fddf146102b957600080fd5b806330c7992c1161011557806330c7992c146101e657806336568abe146101f95780633b9f83831461020c57806342c18b831461021f5780634420e486146102325780634bc02da61461024557600080fd5b806301ffc9a7146101525780630d7b87e21461017a5780631c1efe9e1461018f578063248a9ca3146101a25780632f2ff15d146101d3575b600080fd5b61016561016036600461118d565b610335565b60405190151581526020015b60405180910390f35b61018d6101883660046111b7565b61036c565b005b61018d61019d366004611259565b61044c565b6101c56101b036600461131e565b60009081526020819052604090206001015490565b604051908152602001610171565b61018d6101e1366004611337565b610525565b61018d6101f4366004611363565b61054f565b61018d610207366004611337565b610670565b61018d61021a3660046111b7565b6106ea565b61018d61022d3660046111b7565b6107e9565b61018d610240366004611363565b6108b4565b6101c560008051602061166e83398151915281565b61018d61026836600461131e565b6109c5565b61016561027b366004611363565b610a89565b61018d61028e366004611363565b610b67565b6101656102a1366004611337565b610ba7565b61018d6102b4366004611363565b610bd0565b6101c5600081565b61018d6102cf366004611259565b610c0f565b61018d6102e2366004611337565b610ce4565b6101656102f536600461137e565b610d09565b6101c560008051602061168e83398151915281565b61016561031d366004611363565b610dd4565b61018d610330366004611363565b610e51565b60006001600160e01b03198216637965db0b60e01b148061036657506301ffc9a760e01b6001600160e01b03198316145b92915050565b61038460008051602061168e83398151915233610ba7565b6103a95760405162461bcd60e51b81526004016103a0906113a8565b60405180910390fd5b60005b8181101561040e576000600260008585858181106103cc576103cc6113f3565b90506020020135815260200190815260200160002060010160006101000a81548160ff02191690831515021790555080806104069061141f565b9150506103ac565b507f9e4e4c1f160b3b53eb86440bbe855c3fc2acdd15761379368f16cf58057c5568828260405161044092919061143a565b60405180910390a15050565b610457600033610ba7565b6104735760405162461bcd60e51b81526004016103a090611476565b60005b8151811015610521576104b060008051602061166e8339815191528383815181106104a3576104a36113f3565b6020026020010151610e8c565b7fe3f5ed5f263f1f01764a96edfc7d025f511ec5f7d180e8816908b78bcf74f0988282815181106104e3576104e36113f3565b602002602001015160405161050791906001600160a01b0391909116815260200190565b60405180910390a1806105198161141f565b915050610476565b5050565b60008281526020819052604090206001015461054081610ef1565b61054a8383610efb565b505050565b61056760008051602061166e83398151915233610ba7565b6105835760405162461bcd60e51b81526004016103a0906114be565b60008130604051602001610598929190611509565b60408051601f198184030181529181528151602092830120600081815260029093529120549091501561060d5760405162461bcd60e51b815260206004820152601a60248201527f4163636f756e7420616c7265616479207265676973746572656400000000000060448201526064016103a0565b6000818152600260209081526040918290204281556001908101805460ff1916909117905581513381526001600160a01b038516918101919091527f0a31ee9d46a828884b81003c8498156ea6aa15b9b54bdd0ef0b533d9eba57e559101610440565b6001600160a01b03811633146106e05760405162461bcd60e51b815260206004820152602f60248201527f416363657373436f6e74726f6c3a2063616e206f6e6c792072656e6f756e636560448201526e103937b632b9903337b91039b2b63360891b60648201526084016103a0565b6105218282610e8c565b61070260008051602061168e83398151915233610ba7565b61071e5760405162461bcd60e51b81526004016103a0906113a8565b60005b818110156107b757600160026000858585818110610741576107416113f3565b90506020020135815260200190815260200160002060000181905550600060026000858585818110610775576107756113f3565b90506020020135815260200190815260200160002060010160006101000a81548160ff02191690831515021790555080806107af9061141f565b915050610721565b507f3e087f3011cfcdd221d882f74ea094cde44bd2090a2c8ef9bbbcd45162664042828260405161044092919061143a565b61080160008051602061168e83398151915233610ba7565b61081d5760405162461bcd60e51b81526004016103a0906113a8565b60005b8181101561088257600160026000858585818110610840576108406113f3565b90506020020135815260200190815260200160002060010160006101000a81548160ff021916908315150217905550808061087a9061141f565b915050610820565b507f6c2a1a20729e85f030b21b1d3838b795aca2b8bd26d4f5ad4134128bc1734222828260405161044092919061143a565b6108cc60008051602061166e83398151915233610ba7565b6108e85760405162461bcd60e51b81526004016103a0906114be565b600081306040516020016108fd929190611509565b60408051601f19818403018152918152815160209283012060008181526002909352912054909150156109725760405162461bcd60e51b815260206004820152601a60248201527f4163636f756e7420616c7265616479207265676973746572656400000000000060448201526064016103a0565b60008181526002602090815260409182902042905581513381526001600160a01b038516918101919091527f0a31ee9d46a828884b81003c8498156ea6aa15b9b54bdd0ef0b533d9eba57e559101610440565b6109d0600033610ba7565b6109ec5760405162461bcd60e51b81526004016103a090611476565b6078811015610a4e5760405162461bcd60e51b815260206004820152602860248201527f5468726573686f6c64206d7573742062652067726561746572207468616e2032604482015267206d696e7574657360c01b60648201526084016103a0565b60018190556040518181527f99d47da2054f02d98111bd426aeb7d28d2d2b8d77ad536b453f1b19f16fd44a39060200160405180910390a150565b6000610aa360008051602061166e83398151915233610ba7565b610abf5760405162461bcd60e51b81526004016103a0906114be565b60008230604051602001610ad4929190611509565b60408051601f19818403018152918152815160209283012060008181526002909352912054909150610b415760405162461bcd60e51b81526020600482015260166024820152751058d8dbdd5b9d081b9bdd081c9959da5cdd195c995960521b60448201526064016103a0565b600154600082815260026020526040902054610b5d9042611530565b119150505b919050565b610b72600033610ba7565b610b8e5760405162461bcd60e51b81526004016103a090611476565b610b99600082610efb565b610ba4600033610e8c565b50565b6000918252602082815260408084206001600160a01b0393909316845291905290205460ff1690565b610bdb600033610ba7565b610bf75760405162461bcd60e51b81526004016103a090611476565b610ba460008051602061168e83398151915282610efb565b610c1a600033610ba7565b610c365760405162461bcd60e51b81526004016103a090611476565b60005b815181101561052157610c7360008051602061166e833981519152838381518110610c6657610c666113f3565b6020026020010151610efb565b7f28b26e7a3d20aedbc5f8f2ebf7da671c0491723a2b78f47a097b0e46dee07142828281518110610ca657610ca66113f3565b6020026020010151604051610cca91906001600160a01b0391909116815260200190565b60405180910390a180610cdc8161141f565b915050610c39565b600082815260208190526040902060010154610cff81610ef1565b61054a8383610e8c565b6000610d2360008051602061166e83398151915233610ba7565b610d3f5760405162461bcd60e51b81526004016103a0906114be565b60008330604051602001610d54929190611509565b60405160208183030381529060405280519060200120905060008330604051602001610d81929190611509565b60408051601f1981840301815291815281516020928301206000858152600290935291206001015490915060ff1680610dcb575060008181526002602052604090206001015460ff165b95945050505050565b6000610dee60008051602061166e83398151915233610ba7565b610e0a5760405162461bcd60e51b81526004016103a0906114be565b60008230604051602001610e1f929190611509565b60408051808303601f1901815291815281516020928301206000908152600290925290206001015460ff169392505050565b610e5c600033610ba7565b610e785760405162461bcd60e51b81526004016103a090611476565b610ba460008051602061168e833981519152825b610e968282610ba7565b15610521576000828152602081815260408083206001600160a01b0385168085529252808320805460ff1916905551339285917ff6391f5c32d9c69d2a47ea670b442974b53935d1edc7fd64eb21e047a839171b9190a45050565b610ba48133610f7f565b610f058282610ba7565b610521576000828152602081815260408083206001600160a01b03851684529091529020805460ff19166001179055610f3b3390565b6001600160a01b0316816001600160a01b0316837f2f8788117e7eff1d82e926ec794901d17c78024a50270940304540a733656f0d60405160405180910390a45050565b610f898282610ba7565b61052157610f9681610fd8565b610fa1836020610fea565b604051602001610fb2929190611577565b60408051601f198184030181529082905262461bcd60e51b82526103a0916004016115ec565b60606103666001600160a01b03831660145b60606000610ff983600261161f565b61100490600261163e565b67ffffffffffffffff81111561101c5761101c61122c565b6040519080825280601f01601f191660200182016040528015611046576020820181803683370190505b509050600360fc1b81600081518110611061576110616113f3565b60200101906001600160f81b031916908160001a905350600f60fb1b81600181518110611090576110906113f3565b60200101906001600160f81b031916908160001a90535060006110b484600261161f565b6110bf90600161163e565b90505b6001811115611137576f181899199a1a9b1b9c1cb0b131b232b360811b85600f16601081106110f3576110f36113f3565b1a60f81b828281518110611109576111096113f3565b60200101906001600160f81b031916908160001a90535060049490941c9361113081611656565b90506110c2565b5083156111865760405162461bcd60e51b815260206004820181905260248201527f537472696e67733a20686578206c656e67746820696e73756666696369656e7460448201526064016103a0565b9392505050565b60006020828403121561119f57600080fd5b81356001600160e01b03198116811461118657600080fd5b600080602083850312156111ca57600080fd5b823567ffffffffffffffff808211156111e257600080fd5b818501915085601f8301126111f657600080fd5b81358181111561120557600080fd5b8660208260051b850101111561121a57600080fd5b60209290920196919550909350505050565b634e487b7160e01b600052604160045260246000fd5b80356001600160a01b0381168114610b6257600080fd5b6000602080838503121561126c57600080fd5b823567ffffffffffffffff8082111561128457600080fd5b818501915085601f83011261129857600080fd5b8135818111156112aa576112aa61122c565b8060051b604051601f19603f830116810181811085821117156112cf576112cf61122c565b6040529182528482019250838101850191888311156112ed57600080fd5b938501935b828510156113125761130385611242565b845293850193928501926112f2565b98975050505050505050565b60006020828403121561133057600080fd5b5035919050565b6000806040838503121561134a57600080fd5b8235915061135a60208401611242565b90509250929050565b60006020828403121561137557600080fd5b61118682611242565b6000806040838503121561139157600080fd5b61139a83611242565b915061135a60208401611242565b6020808252602b908201527f48797065726e6174697665204f7261636c65206572726f723a206f706572617460408201526a1bdc881c995c5d5a5c995960aa1b606082015260800190565b634e487b7160e01b600052603260045260246000fd5b634e487b7160e01b600052601160045260246000fd5b600060001982141561143357611433611409565b5060010190565b6020808252810182905260006001600160fb1b0383111561145a57600080fd5b8260051b80856040850137600092016040019182525092915050565b60208082526028908201527f48797065726e6174697665204f7261636c65206572726f723a2061646d696e206040820152671c995c5d5a5c995960c21b606082015260800190565b6020808252602b908201527f48797065726e6174697665204f7261636c65206572726f723a20636f6e73756d60408201526a195c881c995c5d5a5c995960aa1b606082015260800190565b6bffffffffffffffffffffffff19606093841b811682529190921b16601482015260280190565b60008282101561154257611542611409565b500390565b60005b8381101561156257818101518382015260200161154a565b83811115611571576000848401525b50505050565b7f416363657373436f6e74726f6c3a206163636f756e74200000000000000000008152600083516115af816017850160208801611547565b7001034b99036b4b9b9b4b733903937b6329607d1b60179184019182015283516115e0816028840160208801611547565b01602801949350505050565b602081526000825180602084015261160b816040850160208701611547565b601f01601f19169190910160400192915050565b600081600019048311821515161561163957611639611409565b500290565b6000821982111561165157611651611409565b500190565b60008161166557611665611409565b50600019019056fe9d56108290ea0bc9c5c59c3ad357dca9d1b29ed7f3ae1443bef2fa2159bdf5e897667070c54ef182b0f5858b034beac1b6f3089aa2d3188bb1e8929f4fa9b929a26469706673582212202209b92945b24aecf31433a99250e9597a1896fe78c53ca40e585638df2ca28c64736f6c634300080b0033",
  "devdoc": {
    "kind": "dev",
    "methods": {
      "changeTimeThreshold(uint256)": {
        "details": "Admin only function, can be used to block any interaction with the protocol, meassured in seconds"
      },
      "getRoleAdmin(bytes32)": {
        "details": "Returns the admin role that controls `role`. See {grantRole} and {revokeRole}. To change a role's admin, use {_setRoleAdmin}."
      },
      "grantRole(bytes32,address)": {
        "details": "Grants `role` to `account`. If `account` had not been already granted `role`, emits a {RoleGranted} event. Requirements: - the caller must have ``role``'s admin role. May emit a {RoleGranted} event."
      },
      "hasRole(bytes32,address)": {
        "details": "Returns `true` if `account` has been granted `role`."
      },
      "renounceRole(bytes32,address)": {
        "details": "Revokes `role` from the calling account. Roles are often managed via {grantRole} and {revokeRole}: this function's purpose is to provide a mechanism for accounts to lose their privileges if they are compromised (such as when a trusted device is misplaced). If the calling account had been revoked `role`, emits a {RoleRevoked} event. Requirements: - the caller must be `account`. May emit a {RoleRevoked} event."
      },
      "revokeRole(bytes32,address)": {
        "details": "Revokes `role` from `account`. If `account` had been granted `role`, emits a {RoleRevoked} event. Requirements: - the caller must have ``role``'s admin role. May emit a {RoleRevoked} event."
      },
      "supportsInterface(bytes4)": {
        "details": "See {IERC165-supportsInterface}."
      }
    },
    "version": 1
  },
  "userdoc": {
    "kind": "user",
    "methods": {},
    "version": 1
  },
  "storageLayout": {
    "storage": [
      {
        "astId": 5521,
        "contract": "contracts/oracleprotection/HypernativeOracle.sol:HypernativeOracle",
        "label": "_roles",
        "offset": 0,
        "slot": "0",
        "type": "t_mapping(t_bytes32,t_struct(RoleData)5516_storage)"
      },
      {
        "astId": 48507,
        "contract": "contracts/oracleprotection/HypernativeOracle.sol:HypernativeOracle",
        "label": "threshold",
        "offset": 0,
        "slot": "1",
        "type": "t_uint256"
      },
      {
        "astId": 48512,
        "contract": "contracts/oracleprotection/HypernativeOracle.sol:HypernativeOracle",
        "label": "accountHashToRecord",
        "offset": 0,
        "slot": "2",
        "type": "t_mapping(t_bytes32,t_struct(OracleRecord)48494_storage)"
      }
    ],
    "types": {
      "t_address": {
        "encoding": "inplace",
        "label": "address",
        "numberOfBytes": "20"
      },
      "t_bool": {
        "encoding": "inplace",
        "label": "bool",
        "numberOfBytes": "1"
      },
      "t_bytes32": {
        "encoding": "inplace",
        "label": "bytes32",
        "numberOfBytes": "32"
      },
      "t_mapping(t_address,t_bool)": {
        "encoding": "mapping",
        "key": "t_address",
        "label": "mapping(address => bool)",
        "numberOfBytes": "32",
        "value": "t_bool"
      },
      "t_mapping(t_bytes32,t_struct(OracleRecord)48494_storage)": {
        "encoding": "mapping",
        "key": "t_bytes32",
        "label": "mapping(bytes32 => struct HypernativeOracle.OracleRecord)",
        "numberOfBytes": "32",
        "value": "t_struct(OracleRecord)48494_storage"
      },
      "t_mapping(t_bytes32,t_struct(RoleData)5516_storage)": {
        "encoding": "mapping",
        "key": "t_bytes32",
        "label": "mapping(bytes32 => struct AccessControl.RoleData)",
        "numberOfBytes": "32",
        "value": "t_struct(RoleData)5516_storage"
      },
      "t_struct(OracleRecord)48494_storage": {
        "encoding": "inplace",
        "label": "struct HypernativeOracle.OracleRecord",
        "members": [
          {
            "astId": 48491,
            "contract": "contracts/oracleprotection/HypernativeOracle.sol:HypernativeOracle",
            "label": "registrationTime",
            "offset": 0,
            "slot": "0",
            "type": "t_uint256"
          },
          {
            "astId": 48493,
            "contract": "contracts/oracleprotection/HypernativeOracle.sol:HypernativeOracle",
            "label": "isPotentialRisk",
            "offset": 0,
            "slot": "1",
            "type": "t_bool"
          }
        ],
        "numberOfBytes": "64"
      },
      "t_struct(RoleData)5516_storage": {
        "encoding": "inplace",
        "label": "struct AccessControl.RoleData",
        "members": [
          {
            "astId": 5513,
            "contract": "contracts/oracleprotection/HypernativeOracle.sol:HypernativeOracle",
            "label": "members",
            "offset": 0,
            "slot": "0",
            "type": "t_mapping(t_address,t_bool)"
          },
          {
            "astId": 5515,
            "contract": "contracts/oracleprotection/HypernativeOracle.sol:HypernativeOracle",
            "label": "adminRole",
            "offset": 0,
            "slot": "1",
            "type": "t_bytes32"
          }
        ],
        "numberOfBytes": "64"
      },
      "t_uint256": {
        "encoding": "inplace",
        "label": "uint256",
        "numberOfBytes": "32"
      }
    }
  }
}